{
  "_format": "hh-sol-artifact-1",
  "contractName": "CreditScore",
  "sourceName": "contracts/CreditScore.sol",
  "abi": [
    {
      "inputs": [],
      "stateMutability": "nonpayable",
      "type": "constructor"
    },
    {
      "inputs": [
        {
          "internalType": "address",
          "name": "owner",
          "type": "address"
        }
      ],
      "name": "OwnableInvalidOwner",
      "type": "error"
    },
    {
      "inputs": [
        {
          "internalType": "address",
          "name": "account",
          "type": "address"
        }
      ],
      "name": "OwnableUnauthorizedAccount",
      "type": "error"
    },
    {
      "anonymous": false,
      "inputs": [
        {
          "indexed": true,
          "internalType": "address",
          "name": "user",
          "type": "address"
        },
        {
          "indexed": false,
          "internalType": "uint256",
          "name": "newCreditScore",
          "type": "uint256"
        }
      ],
      "name": "CreditScoreUpdated",
      "type": "event"
    },
    {
      "anonymous": false,
      "inputs": [
        {
          "indexed": true,
          "internalType": "address",
          "name": "previousOwner",
          "type": "address"
        },
        {
          "indexed": true,
          "internalType": "address",
          "name": "newOwner",
          "type": "address"
        }
      ],
      "name": "OwnershipTransferred",
      "type": "event"
    },
    {
      "inputs": [
        {
          "internalType": "address",
          "name": "user",
          "type": "address"
        }
      ],
      "name": "getCreditScore",
      "outputs": [
        {
          "internalType": "uint256",
          "name": "",
          "type": "uint256"
        }
      ],
      "stateMutability": "view",
      "type": "function"
    },
    {
      "inputs": [
        {
          "internalType": "address",
          "name": "user",
          "type": "address"
        },
        {
          "internalType": "uint256",
          "name": "volume",
          "type": "uint256"
        },
        {
          "internalType": "uint256",
          "name": "balance",
          "type": "uint256"
        },
        {
          "internalType": "uint256",
          "name": "frequency",
          "type": "uint256"
        },
        {
          "internalType": "uint256",
          "name": "mix",
          "type": "uint256"
        },
        {
          "internalType": "uint256",
          "name": "newTx",
          "type": "uint256"
        }
      ],
      "name": "integrateExternalData",
      "outputs": [],
      "stateMutability": "nonpayable",
      "type": "function"
    },
    {
      "inputs": [],
      "name": "owner",
      "outputs": [
        {
          "internalType": "address",
          "name": "",
          "type": "address"
        }
      ],
      "stateMutability": "view",
      "type": "function"
    },
    {
      "inputs": [],
      "name": "queryCreditScore",
      "outputs": [
        {
          "internalType": "uint256",
          "name": "",
          "type": "uint256"
        }
      ],
      "stateMutability": "view",
      "type": "function"
    },
    {
      "inputs": [],
      "name": "renounceOwnership",
      "outputs": [],
      "stateMutability": "nonpayable",
      "type": "function"
    },
    {
      "inputs": [
        {
          "internalType": "address",
          "name": "newOwner",
          "type": "address"
        }
      ],
      "name": "transferOwnership",
      "outputs": [],
      "stateMutability": "nonpayable",
      "type": "function"
    },
    {
      "inputs": [
        {
          "internalType": "uint256",
          "name": "newTx",
          "type": "uint256"
        }
      ],
      "name": "updateNewTransactions",
      "outputs": [],
      "stateMutability": "nonpayable",
      "type": "function"
    },
    {
      "inputs": [
        {
          "internalType": "uint256",
          "name": "frequency",
          "type": "uint256"
        }
      ],
      "name": "updateTransactionFrequency",
      "outputs": [],
      "stateMutability": "nonpayable",
      "type": "function"
    },
    {
      "inputs": [
        {
          "internalType": "uint256",
          "name": "mix",
          "type": "uint256"
        }
      ],
      "name": "updateTransactionMix",
      "outputs": [],
      "stateMutability": "nonpayable",
      "type": "function"
    },
    {
      "inputs": [
        {
          "internalType": "uint256",
          "name": "volume",
          "type": "uint256"
        }
      ],
      "name": "updateTransactionVolume",
      "outputs": [],
      "stateMutability": "nonpayable",
      "type": "function"
    },
    {
      "inputs": [
        {
          "internalType": "uint256",
          "name": "balance",
          "type": "uint256"
        }
      ],
      "name": "updateWalletBalance",
      "outputs": [],
      "stateMutability": "nonpayable",
      "type": "function"
    },
    {
      "inputs": [
        {
          "internalType": "address",
          "name": "",
          "type": "address"
        }
      ],
      "name": "userCredits",
      "outputs": [
        {
          "internalType": "uint256",
          "name": "transactionVolume",
          "type": "uint256"
        },
        {
          "internalType": "uint256",
          "name": "walletBalance",
          "type": "uint256"
        },
        {
          "internalType": "uint256",
          "name": "transactionFrequency",
          "type": "uint256"
        },
        {
          "internalType": "uint256",
          "name": "transactionMix",
          "type": "uint256"
        },
        {
          "internalType": "uint256",
          "name": "newTransactions",
          "type": "uint256"
        },
        {
          "internalType": "uint256",
          "name": "creditScore",
          "type": "uint256"
        }
      ],
      "stateMutability": "view",
      "type": "function"
    }
  ],
  "bytecode": "0x608060405234801561001057600080fd5b5033600073ffffffffffffffffffffffffffffffffffffffff168173ffffffffffffffffffffffffffffffffffffffff16036100845760006040517f1e4fbdf700000000000000000000000000000000000000000000000000000000815260040161007b919061019e565b60405180910390fd5b6100938161009960201b60201c565b506101b9565b60008060009054906101000a900473ffffffffffffffffffffffffffffffffffffffff169050816000806101000a81548173ffffffffffffffffffffffffffffffffffffffff021916908373ffffffffffffffffffffffffffffffffffffffff1602179055508173ffffffffffffffffffffffffffffffffffffffff168173ffffffffffffffffffffffffffffffffffffffff167f8be0079c531659141344cd1fd0a4f28419497f9722a3daafe3b4186f6b6457e060405160405180910390a35050565b600073ffffffffffffffffffffffffffffffffffffffff82169050919050565b60006101888261015d565b9050919050565b6101988161017d565b82525050565b60006020820190506101b3600083018461018f565b92915050565b610d1b806101c86000396000f3fe608060405234801561001057600080fd5b50600436106100b45760003560e01c80637423134811610071578063742313481461016857806379148df5146101845780638da5cb5b146101a2578063d3dd2bdf146101c0578063f2fde38b146101f0578063f68894db1461020c576100b4565b806320babb92146100b95780633d62caad146100ee5780633dc9e46a1461010a57806347fb1dc0146101265780635160ea8814610142578063715018a61461015e575b600080fd5b6100d360048036038101906100ce91906109da565b610228565b6040516100e596959493929190610a20565b60405180910390f35b61010860048036038101906101039190610aad565b610264565b005b610124600480360381019061011f9190610aad565b6102bd565b005b610140600480360381019061013b9190610aad565b610316565b005b61015c60048036038101906101579190610ada565b61036f565b005b6101666103f9565b005b610182600480360381019061017d9190610aad565b61040d565b005b61018c610466565b6040516101999190610b67565b60405180910390f35b6101aa610476565b6040516101b79190610b91565b60405180910390f35b6101da60048036038101906101d591906109da565b61049f565b6040516101e79190610b67565b60405180910390f35b61020a600480360381019061020591906109da565b6104eb565b005b61022660048036038101906102219190610aad565b610571565b005b60016020528060005260406000206000915090508060000154908060010154908060020154908060030154908060040154908060050154905086565b6000600160003373ffffffffffffffffffffffffffffffffffffffff1673ffffffffffffffffffffffffffffffffffffffff16815260200190815260200160002090508181600101819055506102b9336105ca565b5050565b6000600160003373ffffffffffffffffffffffffffffffffffffffff1673ffffffffffffffffffffffffffffffffffffffff1681526020019081526020016000209050818160040181905550610312336105ca565b5050565b6000600160003373ffffffffffffffffffffffffffffffffffffffff1673ffffffffffffffffffffffffffffffffffffffff168152602001908152602001600020905081816000018190555061036b336105ca565b5050565b610377610824565b6000600160008873ffffffffffffffffffffffffffffffffffffffff1673ffffffffffffffffffffffffffffffffffffffff16815260200190815260200160002090508581600001819055508481600101819055508381600201819055508281600301819055508181600401819055506103f0876105ca565b50505050505050565b610401610824565b61040b60006108ab565b565b6000600160003373ffffffffffffffffffffffffffffffffffffffff1673ffffffffffffffffffffffffffffffffffffffff1681526020019081526020016000209050818160020181905550610462336105ca565b5050565b60006104713361049f565b905090565b60008060009054906101000a900473ffffffffffffffffffffffffffffffffffffffff16905090565b6000600160008373ffffffffffffffffffffffffffffffffffffffff1673ffffffffffffffffffffffffffffffffffffffff168152602001908152602001600020600501549050919050565b6104f3610824565b600073ffffffffffffffffffffffffffffffffffffffff168173ffffffffffffffffffffffffffffffffffffffff16036105655760006040517f1e4fbdf700000000000000000000000000000000000000000000000000000000815260040161055c9190610b91565b60405180910390fd5b61056e816108ab565b50565b6000600160003373ffffffffffffffffffffffffffffffffffffffff1673ffffffffffffffffffffffffffffffffffffffff16815260200190815260200160002090508181600301819055506105c6336105ca565b5050565b6000600160008373ffffffffffffffffffffffffffffffffffffffff1673ffffffffffffffffffffffffffffffffffffffff1681526020019081526020016000209050600080826000015411610621576000610633565b600a82600001546106329190610c0a565b5b905060008083600101541161064957600061065b565b600a836001015461065a9190610c0a565b5b9050600080846002015411610671576000610683565b600a84600201546106829190610c0a565b5b90506000808560030154116106995760006106ab565b600a85600301546106aa9190610c0a565b5b90506000808660040154116106c15760006106d3565b600a86600401546106d29190610c0a565b5b905060006064600a836106e69190610c3b565b6106f09190610c0a565b6064600a856106ff9190610c3b565b6107099190610c0a565b6064600f876107189190610c3b565b6107229190610c0a565b6064601e896107319190610c3b565b61073b9190610c0a565b606460238b61074a9190610c3b565b6107549190610c0a565b61075e9190610c7d565b6107689190610c7d565b6107729190610c7d565b61077c9190610c7d565b9050606481111561078c57606490505b61012c606461012c6103526107a19190610cb1565b836107ac9190610c3b565b6107b69190610c0a565b6107c09190610c7d565b87600501819055508773ffffffffffffffffffffffffffffffffffffffff167f79c012a0cfae660e09134956bc432c8497ec80e86a3a108d130e8b3fca52b3ad88600501546040516108129190610b67565b60405180910390a25050505050505050565b61082c61096f565b73ffffffffffffffffffffffffffffffffffffffff1661084a610476565b73ffffffffffffffffffffffffffffffffffffffff16146108a95761086d61096f565b6040517f118cdaa70000000000000000000000000000000000000000000000000000000081526004016108a09190610b91565b60405180910390fd5b565b60008060009054906101000a900473ffffffffffffffffffffffffffffffffffffffff169050816000806101000a81548173ffffffffffffffffffffffffffffffffffffffff021916908373ffffffffffffffffffffffffffffffffffffffff1602179055508173ffffffffffffffffffffffffffffffffffffffff168173ffffffffffffffffffffffffffffffffffffffff167f8be0079c531659141344cd1fd0a4f28419497f9722a3daafe3b4186f6b6457e060405160405180910390a35050565b600033905090565b600080fd5b600073ffffffffffffffffffffffffffffffffffffffff82169050919050565b60006109a78261097c565b9050919050565b6109b78161099c565b81146109c257600080fd5b50565b6000813590506109d4816109ae565b92915050565b6000602082840312156109f0576109ef610977565b5b60006109fe848285016109c5565b91505092915050565b6000819050919050565b610a1a81610a07565b82525050565b600060c082019050610a356000830189610a11565b610a426020830188610a11565b610a4f6040830187610a11565b610a5c6060830186610a11565b610a696080830185610a11565b610a7660a0830184610a11565b979650505050505050565b610a8a81610a07565b8114610a9557600080fd5b50565b600081359050610aa781610a81565b92915050565b600060208284031215610ac357610ac2610977565b5b6000610ad184828501610a98565b91505092915050565b60008060008060008060c08789031215610af757610af6610977565b5b6000610b0589828a016109c5565b9650506020610b1689828a01610a98565b9550506040610b2789828a01610a98565b9450506060610b3889828a01610a98565b9350506080610b4989828a01610a98565b92505060a0610b5a89828a01610a98565b9150509295509295509295565b6000602082019050610b7c6000830184610a11565b92915050565b610b8b8161099c565b82525050565b6000602082019050610ba66000830184610b82565b92915050565b7f4e487b7100000000000000000000000000000000000000000000000000000000600052601260045260246000fd5b7f4e487b7100000000000000000000000000000000000000000000000000000000600052601160045260246000fd5b6000610c1582610a07565b9150610c2083610a07565b925082610c3057610c2f610bac565b5b828204905092915050565b6000610c4682610a07565b9150610c5183610a07565b9250828202610c5f81610a07565b91508282048414831517610c7657610c75610bdb565b5b5092915050565b6000610c8882610a07565b9150610c9383610a07565b9250828201905080821115610cab57610caa610bdb565b5b92915050565b6000610cbc82610a07565b9150610cc783610a07565b9250828203905081811115610cdf57610cde610bdb565b5b9291505056fea26469706673582212205a478cae6af30ae08ecbca75e9ada5baebca805cd9aaafddf72b3361ecfe361064736f6c63430008140033",
  "linkReferences": {},
  "deployedLinkReferences": {}
}